:100000000C9435000C945D000C945D000C945D0024
:100010000C945D000C945D000C945D000C945D00EC
:100020000C945D000C945D000C945D000C945D00DC
:100030000C945D000C945D000C945D000C945D00CC
:100040000C9414020C945D000C94E2010C94BC011D
:100050000C945D000C945D000C945D000C945D00AC
:100060000C945D000C945D00330311241FBECFEF90
:10007000D8E0DEBFCDBF11E0A0E0B1E0E4E6FAE0F9
:1000800002C005900D92A631B107D9F721E0A6E193
:10009000B1E001C01D92AC3BB207E1F710E0C5E34F
:1000A000D0E004C02197FE010E942505C433D1078A
:1000B000C9F70E945E020C9430050C940000CF92A8
:1000C000DF92EF92FF920F931F93CF93DF936C0118
:1000D0007A018B01C0E0D0E0CE15DF0589F0D801B0
:1000E0006D918D01D601ED91FC910190F081E02D93
:1000F000C6010995892B11F47E0102C02196ECCF2F
:10010000C701DF91CF911F910F91FF90EF90DF908A
:10011000CF900895089580E090E00895FC01538DFC
:10012000448D252F30E0842F90E0821B930B5417D1
:1001300010F0CF96089501970895FC01918D828D5E
:10014000981761F0828DDF01A80FB11D5D968C912B
:10015000928D9F5F9F73928F90E008958FEF9FEF36
:100160000895FC01918D828D981731F0828DE80FF2
:10017000F11D858D90E008958FEF9FEF0895FC01AC
:10018000918D228D892F90E0805C9F4F821B910979
:100190008F73992708958FE191E00E94BF0021E0BD
:1001A000892B09F420E0822F0895FC01848DDF0162
:1001B000A80FB11DA35ABF4F2C91848D90E00196DA
:1001C0008F739927848FA689B7892C93A089B189C9
:1001D0008C9180648C93938D848D981306C00288D3
:1001E000F389E02D80818F7D80830895EF92FF92C7
:1001F0000F931F93CF93DF93EC0181E0888F9B8D4A
:100200008C8D981305C0E889F989808185FD24C00B
:10021000F62E0B8D10E00F5F1F4F0F731127E02E8E
:100220008C8DE8120CC00FB607FCFACFE889F9896B
:10023000808185FFF5CFCE010E94D500F1CF8B8D57
:10024000FE01E80FF11DE35AFF4FF0820B8FEA89A0
:10025000FB898081806207C0EE89FF896083E8891D
:10026000F98980818064808381E090E0DF91CF9183
:100270001F910F91FF90EF900895CF93DF93EC01C2
:10028000888D8823C9F0EA89FB89808185FD05C0B6
:10029000A889B9898C9186FD0FC00FB607FCF5CFF0
:1002A000808185FFF2CFA889B9898C9185FFEDCF38
:1002B000CE010E94D500E7CFDF91CF91089580E075
:1002C00090E0892B29F00E94CB0081110C94000052
:1002D00008958F929F92AF92BF920F931F93CF93E7
:1002E000DF93CDB7DEB7A1970FB6F894DEBF0FBE90
:1002F000CDBF19A2423008F44AE08E010F5D1F4FB6
:10030000842E912CA12CB12CA50194010E940305EF
:10031000E62FB901CA0101501109EA3014F4E05D79
:1003200001C0E95CD801EC93232B242B252B61F72A
:100330000115110571F0F80101900020E9F73197DE
:10034000AF01401B510BB8018FE191E00E945F00AB
:1003500002C080E090E0A1960FB6F894DEBF0FBE19
:10036000CDBFDF91CF911F910F91BF90AF909F9024
:100370008F9008950E942B051F920F920FB60F9237
:1003800011242F933F934F935F936F937F938F939A
:100390009F93AF93BF93EF93FF938FE191E00E9400
:1003A000D500FF91EF91BF91AF919F918F917F9178
:1003B0006F915F914F913F912F910F900FBE0F90D2
:1003C0001F9018951F920F920FB60F9211242F9322
:1003D0008F939F93EF93FF93E0912F01F091300162
:1003E0008081E0913501F091360182FD12C090814B
:1003F000809138018F5F8F7320913901821751F0FE
:10040000E0913801F0E0E15EFE4F958F8093380176
:1004100001C08081FF91EF919F918F912F910F905B
:100420000FBE0F901F9018951F920F920FB60F924C
:1004300011242F933F938F939F93AF93BF938091FA
:100440001B0190911C01A0911D01B0911E013091E2
:100450001A0123E0230F2D3720F40196A11DB11DB1
:1004600005C026E8230F0296A11DB11D20931A0195
:1004700080931B0190931C01A0931D01B0931E015A
:100480008091160190911701A0911801B091190166
:100490000196A11DB11D8093160190931701A093A1
:1004A0001801B0931901BF91AF919F918F913F9126
:1004B0002F910F900FBE0F901F901895789484B5D0
:1004C000826084BD84B5816084BD85B5826085BD50
:1004D00085B5816085BD80916E00816080936E00DE
:1004E00010928100809181008260809381008091D0
:1004F0008100816080938100809180008160809381
:1005000080008091B10084608093B1008091B00040
:1005100081608093B00080917A00846080937A003B
:1005200080917A00826080937A0080917A00816065
:1005300080937A0080917A00806880937A0010928C
:10054000C100E0912F01F091300182E08083E091C1
:100550002B01F0912C011082E0912D01F0912E01E0
:100560008FEC808310923701E0913301F0913401D8
:1005700086E08083E0913101F091320180818061D9
:100580008083E0913101F091320180818860808325
:10059000E0913101F0913201808180688083E091A7
:1005A0003101F091320180818F7D808310E4C3E2BC
:1005B000D0E010937C0080917A00806480937A0070
:1005C00080917A0086FDFCCF60917800809179005F
:1005D00070E0782B61517240072E000C880B990B4C
:1005E0000E940A0420E030E847EF53E40E946003D1
:1005F00020E030E048E451E40E94960420E030E03E
:100600004AE754E40E9496040E94D2036B01770FDC
:10061000EE08FF08F7FE14C0E0911F01F0912001E1
:100620000190F081E02D6DE28FE191E00995662760
:100630007727CB016C197D098E099F094AE003C019
:100640004AE0C701B6010E94690142E050E062E160
:1006500071E08FE191E00E945F00CE010197F1F718
:100660000E945F01A6CFEFE1F1E01382128288EED3
:1006700093E0A0E0B0E084839583A683B78384E011
:1006800091E09183808385EC90E09587848784EC6A
:1006900090E09787868780EC90E0918B808B81EC4F
:1006A00090E0938B828B82EC90E0958B848B86EC30
:1006B00090E0978B868B118E128E138E148E089578
:1006C0000E9474030C945C040E94550458F00E942C
:1006D0004E0440F029F45F3F29F00C944504511179
:1006E0000C9490040C944B040E946D0468F39923BD
:1006F000B1F3552391F3951B550BBB27AA2762171E
:100700007307840738F09F5F5F4F220F331F441F2A
:10071000AA1FA9F335D00E2E3AF0E0E832D091505E
:100720005040E695001CCAF72BD0FE2F29D0660F4B
:10073000771F881FBB1F261737074807AB07B0E88E
:1007400009F0BB0B802DBF01FF2793585F4F3AF094
:100750009E3F510578F00C9445040C9490045F3F43
:10076000E4F3983ED4F3869577956795B795F7951A
:100770009F5FC9F7880F911D9695879597F9089502
:10078000E1E0660F771F881FBB1F6217730784079E
:10079000BA0720F0621B730B840BBA0BEE1F88F7AD
:1007A000E09508950E94D9036894B1110C949004C7
:1007B00008950E94750488F09F5798F0B92F9927E3
:1007C000B751B0F0E1F0660F771F881F991F1AF03C
:1007D000BA95C9F714C0B13091F00E948F04B1E00E
:1007E00008950C948F04672F782F8827B85F39F00D
:1007F000B93FCCF3869577956795B395D9F73EF4D5
:1008000090958095709561957F4F8F4F9F4F08957C
:10081000E89409C097FB3EF490958095709561959A
:100820007F4F8F4F9F4F9923A9F0F92F96E9BB2750
:100830009395F695879577956795B795F111F8CFCC
:10084000FAF4BB0F11F460FF1BC06F5F7F4F8F4F37
:100850009F4F16C0882311F096E911C0772321F02D
:100860009EE8872F762F05C0662371F096E8862FC5
:1008700070E060E02AF09A95660F771F881FDAF71C
:10088000880F9695879597F9089597F99F6780E85F
:1008900070E060E008959FEF80EC089500240A94D2
:1008A0001616170618060906089500240A9412164B
:1008B0001306140605060895092E0394000C11F47E
:1008C000882352F0BB0F40F4BF2B11F460FF04C02B
:1008D0006F5F7F4F8F4F9F4F089557FD9058440F84
:1008E000551F59F05F3F71F04795880F97FB991F8F
:1008F00061F09F3F79F0879508951216130614064C
:10090000551FF2CF4695F1DF08C0161617061806D8
:10091000991FF1CF86957105610508940895E894B3
:10092000BB2766277727CB0197F908950E94A90472
:100930000C945C040E944E0438F00E94550420F090
:10094000952311F00C9445040C944B0411240C9441
:1009500090040E946D0470F3959FC1F3950F50E0D1
:10096000551F629FF001729FBB27F00DB11D639F61
:10097000AA27F00DB11DAA1F649F6627B00DA11D07
:10098000661F829F2227B00DA11D621F739FB00DAD
:10099000A11D621F839FA00D611D221F749F33271D
:1009A000A00D611D231F849F600D211D822F762FB6
:1009B0006A2F11249F5750409AF0F1F088234AF093
:1009C000EE0FFF1FBB1F661F771F881F91505040FF
:1009D000A9F79E3F510580F00C9445040C949004B7
:1009E0005F3FE4F3983ED4F3869577956795B79586
:1009F000F795E7959F5FC1F7FE2B880F911D9695A0
:100A0000879597F90895A1E21A2EAA1BBB1BFD0139
:100A10000DC0AA1FBB1FEE1FFF1FA217B307E407DD
:100A2000F50720F0A21BB30BE40BF50B661F771F35
:100A3000881F991F1A9469F7609570958095909515
:100A40009B01AC01BD01CF010895EE0FFF1F059082
:100A5000F491E02D099481E090E0F8940C94300535
:040A6000F894FFCF38
:100A640000000000F6005F008E003D01BF009D0005
:060A7400B1000D0A0000B4
:00000001FF
